:100000000C94A9060C94C6060C94C6060C94C6065D
:100010000C94C6060C94C6060C94C6060C94210AD1
:100020000C94C6060C94C6060C94C6060C94C60620
:100030000C94C6060C9403080C94C6060C94C606D1
:100040000C94C6060C94A3090C94C6060C94C60620
:100050000C94C6060C94C6060C94C6060C94C606F0
:100060000C94C6060C94C606808386898C8F929564
:10007000999C9FA2A5A8ABAEB1B4B6B9BCBFC2C48F
:10008000C7C9CCCFD1D3D6D8DADCDFE1E3E5E7E8E6
:10009000EAECEEEFF1F2F3F5F6F7F8F9FAFBFCFD16
:1000A000FDFEFEFFFFFFFFFFFFFFFFFFFFFEFEFD68
:1000B000FDFCFBFBFAF9F8F7F5F4F3F1F0EEEDEBEC
:1000C000E9E8E6E4E2E0DEDBD9D7D5D2D0CDCBC893
:1000D000C6C3C0BDBBB8B5B2AFACA9A6A3A09D9A1C
:1000E0009794918E8B8784817E7B7874716E6B6818
:1000F00065625F5C595653504D4A4744423F3C3914
:100100003734322F2D2A282624211F1D1B1917169C
:100110001412110F0E0C0B0A080706050404030243
:1001200002010100000000000000000000010102C7
:1001300002030405060708090A0C0D0E1011131519
:1001400017181A1C1E20232527292C2E3033363849
:100150003B3D404346494B4E5154575A5D606366A0
:100160006A6D707376797C80817A0A85EF034C45DD
:10017000A2956003F61E3F2B538E1F0767F6BAAD9C
:1001800092C80A67151511674CF6EFBA102B8167F4
:100190006D4C4C453F5353677A4C3810EF32244531
:1001A000596D9C6745241E24F60A325995749C3279
:1001B0001792D5F6F6FD17811F251181171085E2DC
:1001C000A017606753030B9CDA7BD57328093E00A8
:1001D0001E85E289816B36010A240A225D2838C80F
:1001E000A0F6F659044A367A858E246BE9811F3CC5
:1001F0001860FDA0AD0A6D118845F64C4C3F85FD99
:10020000742238C838A6EC50006C84EF364328E9D5
:100210000D4A3F4200D509D57A8F506DDB456D1EE2
:100220001E014A0EC8D51B9285BA8878C1964067D0
:100230008E23F5098E6707180B0E4392DA9C535DE7
:100240002E3837A08E7BDAF8F8997AD5285DB992E6
:10025000353F578F7B6E6E3C388501283F2301FD6B
:10026000405D6E4D5404920023A0DB3F817A81955E
:10027000183695EFD50D0D9FF65DFD1C0D9C2B924C
:10028000213852775959BA1A4023E532A01AB6DC00
:10029000593E611E4723F49C450242A1D485360392
:1002A00054EAF3C16B1F5D6A52F5D443173218BA92
:1002B0002B5BF9452A53ACD77E36CE53634715A046
:1002C00078234584980D3685EA05600C909645D7CD
:1002D00009252C71016A10A263286EE1FC37E82B16
:1002E000288E179279E45478A02B66843F17323712
:1002F0003C81206FE7408E6D2AF39F3CC8E0F8F305
:10030000823F7401FC0D23810B44FE787401148B31
:100310009B38DFE7A00E4C749FEF079964EF28E14C
:100320003EE92F406DFD0ED1DD5D2B03286CAC4501
:1003300032FB19D17825EF8D100A67C14A88E20A8D
:10034000A0EF0A28D4166A53FB8D97237A80F834DD
:10035000F39FB04E5D28D615D5096A0A010001C881
:10036000117FC892174B091B516FDBF66A420E2DA5
:100370002199890238C1456A2A66E8921A3E24C842
:10038000323A8F59731EA3C11F246CD422AFF65684
:100390001616332F6CE5D43E010D4210F41CD17FAC
:1003A000017228387E0C2211BD35050C1A6CF181C2
:1003B000581D5CF7E8A004E07AA7F85DD4047553F3
:1003C000D431160D9C527F9C0C4285AD4BC7D18D0C
:1003D000C88E606D82F9E72C50A04D96250A0DEE6F
:1003E000095349244A074A89321A8101241815CB36
:1003F000673F89B010942159ADF6850B7A32AC9FD6
:100400004C4C3B5EDA53360D6CA17485DB5717E21A
:100410001E17011A6A24E54A307FD502AF23CA03AA
:1004200054932DA004747A03A02C0BD4843F157F21
:10043000965003D43F7F1E0D4D24210961C71195AD
:1004400024A23AAA01C31AE5560DD499072C440EEA
:1004500060C8D81BAC1DEEA24C6AE71C2F9DEF783C
:100460007A5469F787357A303A3F0DD56A95543F0B
:100470004FA22B07036ACB891770EEC8B9664D717E
:100480008D6B7879337E6460D81C019C6B54E39B40
:100490001726091872DBA0E1705A9577F6A3882D0C
:1004A0001CE4881BAD07172A3ECA8D3F7B6C28933E
:1004B000C13E6D101EA9D40464DF79185D32F5A029
:1004C00043A2AC596D6D8EFCA614296296504F3B29
:1004D00058A27415780A0909E73177AC1F54E9A0CE
:1004E000D4C763A6353A2F2DF10E24A9FAAF0D54C7
:1004F000DAA6BA03F66016E88EA6070D097784C758
:10050000C80F11889C094CB988F539120639500A70
:100510006E5D007E717805491CE4A00ED643A201F1
:100520000F05BECEC80700EE008D23102467F1EE44
:100530007F389207DB087B0053F3FF56456A301281
:10054000032480E5028EFC1A36676C0E14BA733FE2
:100550007B3CA03FB98B20E69262300E26743F525E
:1005600075025FEEC8BA8D0B1F953F963C020E0ECA
:100570004CB9589C2110A1F6364F237A58D400AAC2
:10058000671C67D501466E0A38204D1BA673BE93C3
:100590002DA4ECEFC752732D9F00DA174114FE57BC
:1005A0001F95D4E9542AB652DB1F224993A0589FC5
:1005B0005878F8920EE567201199730D6D0314F3C6
:1005C000D62B0A0915863A233A4337408711E16B47
:1005D00001F31415F93F351F7100C3069C325243D5
:1005E0003D4C4551240AEB58546701EFEADF406760
:1005F00089529C23646736D423DB4F3E508B044CD6
:10060000BE674B102DA136CB1FA2D83DD6018D5908
:1006100082C10B0E3E73CDC374402083F84AA08183
:10062000136081FB99170389D104DB32166DF954ED
:1006300040CBA04F23324C4D6D0468EA955D0A947F
:10064000EEEF3E6A4CC4F49253C8606EC4BA8E9FFB
:10065000B616FC5289023604BA5D9CD13FD40942D9
:10066000017F6870C436357A540EF65D6AA6207133
:100670001F6A016AF36DA1D9B358C7F500CB745155
:10068000711E7805B0008EE0EDDB0354953093E4E5
:10069000457AF731C34B098E967A98EC1E04E4969E
:1006A0009FF2FF98534B116F2997F6368DD97567D6
:1006B000B69F643B04A62D895A2F8E74345007428E
:1006C000242D32387975D4E0454DF01E0A996D1D00
:1006D000A4B700E88EE2D57A037A14140A2E412FCB
:1006E00033EF28F328E0FCC838391CA6591109F665
:1006F000710709357AFC8D588E44116FF8952301E6
:1007000039B33E1557D63F7AEE0174142822250ED0
:10071000674001A6E1FC5D305954E7249FC3F51EF4
:10072000033F24C415BA240935D5326B6795434578
:10073000B3D635030C9ADB8566A2C79BA2E7E057C8
:100740002C390BF66A8410231B1A651E2CFCF03E14
:10075000D1DB5B0E6A7F3E070D7774AD4543A6750E
:10076000017A0B78944C7432A444289F7E1B0B3181
:10077000E4A4A1EF03DBFC92EEEE238E817FDAC8C6
:100780006B6BAC230BFEFB39D435D9E90D2554989E
:1007900033406B1D529235A09F368EC8DD57FD59F0
:1007A000A3F4DD38AC9F0907075D841167C4F642E6
:1007B0000A1410003ED4810551EE2BD56D9C64DBEC
:1007C000AC6C2E4F7317FD72600532EE24563E3529
:1007D000D4016DF83ADF150B9C7101000D809B2E42
:1007E00000BE848B2B393E77BD0D3FE978DB570186
:1007F00032F91F9235523FDFE028012A453873B4A1
:100800007275B7EE1A6C28744CD40D3F39AA961F36
:10081000E95D035DD8D82FD52BF5092E67A42D6D82
:1008200040C792A973850488592F612F6701743FCF
:100830007A3EEE9A4E0B1674FD2F59851C1D3525F8
:10084000EF1D210A1A8E3F0E9CA6DDB78907D5033E
:100850001624E7057B10B93C955F04285D143C35F0
:10086000217A2436188567647FA64DD5AC0D2E9469
:1008700001E20F1B568E281B71553C6789144AD123
:100880001F7410282852E81B640F21EF6EEF66D703
:10089000453298100D2842F237F73E1C0688DB1EC1
:1008A00035776A28D4923F4DFBF99C112B4F676A2C
:1008B000386D26386B45F216FDEECB8B72C43F4384
:1008C000AD014F2A668D45BA0FF4540AACB9C86B16
:1008D000F6EA15F5DEF52B1EDD2312D88E9FE8090A
:1008E0003F6AC70046E4E27F46608421779C471751
:1008F0009CC745A659D464E9C16B714D3F0042289D
:10090000FC023E50F8E23C3201678536038D17C782
:10091000B3AC9C6A77FB9C01169B730DA0E91E0B80
:10092000B0FEDA2C0D356A09A64421463EA16721A6
:100930003FD819B70177D57439A2DB355D005D4327
:10094000967F453ED417AD14DB749BD9FF211E263C
:10095000907CE03677C3100E6D2539B4C44DAD36AA
:10096000A03552243EDD970C123828F32AF2E18597
:1009700051751F82D59FB9ACF5025D6B5DD5E08FD7
:10098000463F9F8D8D0EC421E7883E1D1038B92843
:100990001F2EBE3200232E213E8E5D6B96F3DB1F91
:1009A00000FCE8DBAC000A0EE5758619178DD9222C
:1009B000273F50831442B0FDE1B3DC218E1596E948
:1009C0001E016428E81E743F73785BA26FD10E5637
:1009D0001039D6D5DA514F10CE674F60843C2A3695
:1009E00039FE4C23DB675D354C5235435424843744
:1009F00011920D67B981D5E44208577AD5D5E14502
:100A00009FD4FD43EF03DB39E20D4CD96A244A1031
:100A10006F96012EEE166DEF0F1ABA151807854F57
:100A2000EE356A502CE4F961E9EFEE232135CE81F1
:100A30006092A073A2FAA959EE2ED55A3246C83E4A
:100A40001A6B35E12867DAEEB740FDB910584DFD55
:100A5000A0EF09F510D4AD5D750B2B6774C8D56D8B
:100A60000B8528D57A323F506B920E1EBA35014C59
:100A700052748B4C1A2CE7E7896B32EF77DBD4BAD0
:100A80006B784C4639676B1B0159A319FE2B17D99C
:100A9000C756E8044223A1BA0D98D7A61AD432F853
:100AA000383B0564EF87677E35AC3C4F1979B4015C
:100AB00059154AE96B15815DE23936EE1A0AE8D418
:100AC000A0400023E51B8E3E3E2E1A736E244F0A73
:100AD00046017A98BD0DAD89C4BA928C013FD4020B
:100AE000EE5D433CE5E09628EFD4533228DB244604
:100AF00028A25E2FEE32C7222A6CD68B97580D4A59
:100B000023D4CD00E184ADE05B3ACE2C1E6A56D6EC
:100B10004FE80AE2901E5B1B31D4435FEDAD290420
:100B2000813BCE3266C0D77466EF6E295624BA1167
:100B30007458636A87D4D50E1F19113A8E140B6E40
:100B400064BD244010A23BA0DB1D92DB950A3F321E
:100B50001A7589265D9FB918DB800E32179F1837EA
:100B6000103CE11636DC0119A19054003209E81856
:100B7000E5383E8F5E0F67F1882877F3E9674F40CD
:100B800051240B157A4BE562465959F83A677A2495
:100B900028F56AC0E08E5D6123443810920084FA23
:100BA0007700751C29E09CD46AB96A0D00F6672CA1
:100BB000363607E9EF3F8E247A88E91B3F78E9EF64
:100BC000DB884A8C5AA2E26BC76C160AA27B99AAF0
:100BD0004D0A1AE88DEF6BD50B786404C8F6A03E79
:100BE0002A10AD9606FEC10E6A45D67A3525E40A6E
:100BF00003C1040052030D4B580BF42B007153EF4B
:100C000058562435DB1707DF4E53DA106A4CFF279E
:100C10008E78F44C6745DAC8074F458094237AE90B
:100C20002328009C5D24D6B980D4457808534CFD18
:100C3000113E56F21ACD5D713F6A510343D41E63D3
:100C40004573E80A39DF00E5CE99746A5971A14FFE
:100C5000A04DF6F18F0E2C4D6058379B07536C4515
:100C60000D5E3F06A6927120F04B6B11B42445E94E
:100C7000180E2803882BD40B71B0CEAD1BBA921777
:100C800010A028D4ACB90088B7F4DF92118E090DFA
:100C900073B9D4C82C89A061400EF63E02D43F92AD
:100CA000450E71755438593E6B170E153F283E6A34
:100CB000D4231E82D5BE4024EE377AACD50A9C40A0
:100CC0005D4001818E328E3E7336A028E23275403F
:100CD0007A6022181E6A1AEE237A0067D600F9B7E6
:100CE0002501A15900AC3F2B6BCEC8610B2478EED7
:100CF000846A3559BA6D4A7F780192013FFD380AFE
:100D00007878010984016D6E6E501B3FD4F59F0009
:100D10006B50101F5043019C6750EE283F43FD3835
:100D20001B4A2F6D5D36D56B2B2B03DBC80E353E72
:100D300078749C4C600481A0D50024EF8EEF0439B8
:100D400025221F7A9200D46A9F6BF62F5A2C0A280C
:100D5000000011241FBECFEFD8E0DEBFCDBF11E0F1
:100D6000A0E0B1E0EAE5F6E102C005900D92A63000
:100D7000B107D9F722E0A6E0B1E001C01D92A2338D
:100D8000B207E1F70E94FF090C942B0B0C940000B2
:100D9000CF93DF931F92CDB7DEB72091060130913C
:100DA00007019170280F391F309307012093060126
:100DB00080910601909107019370909307018093B1
:100DC0000601809106019091070196958795969569
:100DD00087958983E981F0E0E859FF4F84910F906E
:100DE000DF91CF91089588E691E09093110280936E
:100DF00010028AEE9BE090930D0280930C0280E03B
:100E000090E020E8FC01E65FFE4F2083019681150B
:100E100031E09307B9F781EC809380008AE08093FA
:100E2000810010928200109289001092880008952B
:100E30000F931F93CF93DF9300D0CDB7DEB71A8205
:100E4000198280911202813009F093C080911302BF
:100E5000882321F0813009F44EC08BC080910E02AE
:100E6000813001F51A82198289819A818038910531
:100E7000B0F409811A8180910801909109010E94C2
:100E8000C806F801E65FFE4F808389819A8101964A
:100E90009A83898389819A818038910550F31092D1
:100EA0000E0267C080910E02823009F062C080E8B5
:100EB00090E09A83898389819A818F3F910509F017
:100EC000B8F409811A8180910801909109010E946A
:100ED000C806F801E65FFE4F808389819A810196FA
:100EE0009A83898389819A818F3F910551F348F3D1
:100EF00010920E023EC080910F028138D0F1809195
:100F00000C0290910D0220910A0230910B02821B7B
:100F1000930B8138910548F120910A0230910B0220
:100F200020583F4F1A82198289819A818038910511
:100F300000F5409110025091110289819A81E98156
:100F4000FA81E20FF31FE40FF51FE491DC01A65FC5
:100F5000BE4FEC9389819A8101969A838983898116
:100F60009A818038910548F304C080910A029091DB
:100F70000B020F900F90DF91CF911F910F91089569
:100F800080931302089510920F0281E08093120261
:100F900010928900109288001092850010928400AF
:100FA000E1E8F0E0808182608083EFE6F0E080811C
:100FB000816080830895CF93DF9300D000D0CDB7B8
:100FC000DEB719821A821B821C829C01A0E0B8E263
:100FD0000E947A0A69837A838B839C8369817A81F0
:100FE0008B819C812DE231E341E050E00E94580A60
:100FF00030930901209308010F900F900F900F90EC
:10100000DF91CF9108951F920F920FB60F92112486
:101010002F933F938F939F93EF93FF93E0910F0252
:10102000F0E0E65FFE4F808190E09093890080932E
:101030008800809113028130E9F480910A02909136
:101040000B02019690930B0280930A0220910A02F0
:1010500030910B0280910C0290910D0228173907F4
:1010600030F480910F028F5F80930F0213C01092B3
:10107000120210C080910F028F5F80930F028111C6
:1010800004C082E080930E0205C0803819F481E02C
:1010900080930E02FF91EF919F918F913F912F913D
:1010A0000F900FBE0F901F9018958AE090E09093DC
:1010B000170280931602109215028FE70E94420ACF
:1010C0000895CF93DF9380911502882319F0813022
:1010D00069F19CC08091160290911702009781F0EF
:1010E0000197909317028093160280E00E94910965
:1010F00060E070E0CB010E9475090E946D0986C016
:1011000082E00E94910960E270E080E090E00E943D
:10111000750980E00E94C00784E690E00E94DB072A
:101120000E94C30781E08093150270C080911A026B
:1011300090911B02892B61F00E94970980911A02FD
:1011400090911B02019790931B0280931A0209C091
:1011500060E270E080E090E00E94750982E00E9409
:1011600091090E946D0980911602909117020097D3
:1011700031F00197909317028093160212C00E94DB
:10118000E90A6FEF71E00E94440A88539F4F9093E1
:101190001702809316028EE190E090931B028093D9
:1011A0001A028091180290911902009731F001976C
:1011B000909319028093180229C00E94E90A6FEFE8
:1011C00072E00E94440A845D9E4F909319028093BE
:1011D00018020E94E90AEC010E94E90AFC01CE0112
:1011E00063E070E00E94440A9C0121503109CF0164
:1011F00064E670E00E94440A289F202D11242158A3
:1012000020931402809114020E94420ADF91CF9130
:10121000089584E08093040180910401882381F182
:1012200080E060EE882399F0482F50E0209104017F
:1012300030E021503109421753074CF4440F551F39
:10124000440F551FFA01E45EFD4F608309C0E82F8B
:10125000F0E0EE0FFF1FEE0FFF1FE45EFD4F108268
:10126000E82FF0E0EE0FFF1FEE0FFF1FE45EFD4FD3
:101270001182128213828F5F90910401891790F27C
:101280008FE78CBD089580912E02813031F020F1DE
:10129000823011F18330D9F01DC010922D021092CE
:1012A0002C02E0912D02F0E080912C02EE0FFF1F46
:1012B000EE0FFF1FE45EFD4FE80FF11D90818CB52E
:1012C00080688CBD9EBD82E080932E0208951092AE
:1012D0002E02089510922E02089580912E028111FF
:1012E00003C081E080932E020895CF92DF92EF92A7
:1012F000FF920F931F936C01EE24FF24072F182FEA
:10130000292F3327ECE1F2E0C58206836783C1868B
:10131000028763871F910F91FF90EF90DF90CF902E
:101320000895806EECE1F2E0848380870895ECE11B
:10133000F2E080EE84831582168217828087118600
:101340001286138608951F920F920FB60F921124E2
:101350008F939F93EF93FF93CF93DF931F92CDB71C
:10136000DEB780912C028F5F80932C0280912C023B
:10137000843038F010922C0280912D028F5F809380
:101380002D0290912D02809104019817A8F4E0910C
:101390002D02F0E080912C02EE0FFF1FEE0FFF1FD9
:1013A000E45EFD4FE80FF11D8081898399818CB542
:1013B00080688CBD9EBD03C083E080932E020F9099
:1013C000DF91CF91FF91EF919F918F910F900FBE81
:1013D0000F901F901895F8948FE284B915B880E4A7
:1013E0008AB91BB882E08093B00094E09093B1007A
:1013F00099EF9093B30080937000789408950E94C1
:10140000EB090E9409090E943C0A0E94F3060E940F
:10141000550880913102882359F010923102809151
:1014200030028F5F809330020E9461080E9443095E
:1014300080913002843610F0109230020E9418071A
:10144000E8CF1F920F920FB60F9211248F938091C5
:101450002F028F5F8A3018F480932F0207C01092FA
:101460002F02809131028F5F809331028F910F9014
:101470000FBE0F901F90189583EC84BD84E085BD4E
:1014800017BC089587BD089597FB072E16F40094A6
:1014900007D077FD09D00E94890A07FC05D03EF4E9
:1014A000909581959F4F0895709561957F4F089510
:1014B000A1E21A2EAA1BBB1BFD010DC0AA1FBB1F58
:1014C000EE1FFF1FA217B307E407F50720F0A21BCA
:1014D000B30BE40BF50B661F771F881F991F1A9437
:1014E00069F760957095809590959B01AC01BD0161
:1014F000CF010895A29FB001B39FC001A39F700DBB
:10150000811D1124911DB29F700D811D1124911D0B
:101510000895AA1BBB1B51E107C0AA1FBB1FA6173A
:10152000B70710F0A61BB70B881F991F5A95A9F78C
:1015300080959095BC01CD0108958F929F92AF92B6
:10154000BF92CF92DF92EF92FF92CF93DF93EC01A5
:10155000688179818A819B81611571058105910579
:1015600021F464E279ED8BE597E02DE133EF41E082
:1015700050E00E94F90A49015A019B01AC01A7EA17
:10158000B1E40E94180B6B017C01ACEEB4EFA50135
:1015900094010E94260BDC01CB018C0D9D1DAE1D1C
:1015A000BF1DB7FF03C00197A109B0488883998385
:1015B000AA83BB839F77DF91CF91FF90EF90DF905D
:1015C000CF90BF90AF909F908F9008950E949D0AFA
:1015D000089580E091E00E949D0A0895A0E0B0E0A7
:1015E0008093000190930101A0930201B093030145
:1015F0000895052E97FB1EF400940E94100B57FDD2
:1016000007D00E94580A07FC03D04EF40C94100B2C
:1016100050954095309521953F4F4F4F5F4F08951E
:1016200090958095709561957F4F8F4F9F4F08954E
:101630000E947A0AA59F900DB49F900DA49F800DE3
:10164000911D11240895B7FF0C94180B0E94180BDC
:0A165000821B930B0895F894FFCF5E
:06165A0001000000020087
:00000001FF
